:100000000C9432020C9453020C9453020C9453023D
:100010000C9453020C9453020C9453020C9453020C
:100020000C9453020C9453020C9453020C944434D9
:100030000C9453020C9453020C9453020C945302EC
:100040000C9453020C94C3340C9453020C9453023A
:100050000C9453020C9453020C9453020C94863467
:100060000C9453020C949F380C944F390C94530207
:100070000C9453020C9453020C9453020C945302AC
:100080000C9453020C9453020C9453020C9433348A
:100090000C9453020C9453020C9453020C9453028C
:1000A0000C9453020C9453020C9453020C9453027C
:1000B0000C9453020C9453020C9453020C9453026C
:1000C0000C9453020C9453020C9453020C9453025C
:1000D0000C9453020C9453020C9453020C9453024C
:1000E0000C945302084AD73B3BCE016E84BCBFFD43
:1000F000C12F3D6C74319ABD56833DDA3D00C77FF8
:1001000011BED9E4BB4C3E916BAAAABE0000008090
:100110003F05A84CCDB2D44EB93836A9020C50B91F
:10012000918688083CA6AAAA2ABE000000803F004B
:100130000C9435390C940B390C9475250C94333987
:100140000C9417390C948B3F0C940F3F0C9487251B
:100150000C943D3F0C9429390C94463F0C94523F2B
:100160000C94733F0C9431390C941D390C947925FF
:100170000C9409390C94C9250C942F390C941C3F0C
:100180000C94703F0C94A5250C947C3F0C941B3967
:100190000C9425390C94073F0C94B9250C942D39F7
:1001A0000C94243F0C94F2380C945C3F0C9405257D
:1001B0000C944E250C9421390C940A3F0C949F3FCB
:1001C0000C94853F0C9439390C9437390C94013FC9
:1001D0000C9427390C94123F0C94343F0C94683FD4
:1001E0000C94A83F0C94313F0C948D3B0C945B25F0
:1001F0000C94943F0C941F390C94AF250C946825F3
:100200000C9423390D0A4772626C20312E3268201B
:100210005B27242720666F722068656C705D0D0A6D
:1002200000244E005B4F50543A003A005B41585353
:100230003A005B5645523A312E32682E3230323215
:10024000303130393A005B544C4F3A005B47393219
:100250003A003330003238005B47005B443A0020FC
:100260004700204D00205300204600205400333822
:100270002E005B47433A47005B484C503A24242009
:10028000242320244420244720244920244E2024B1
:10029000783D76616C20244E783D6C696E65202433
:1002A0004A3D6C696E652024534C50202443202421
:1002B00058202448207E2021203F206374726C2D1A
:1002C000785D0D0A00414C41524D3A000000C84390
:1002D0000000C8430000C843E4380E41E4380E4132
:1002E000E4380E4100803B4400803B4400803B44A6
:1002F0000000B4440000B4440000B44400C82F48D7
:1003000000C82F4800C82F4800C82F4800C82F48F1
:1003100000C82F480000C8C3000048C3000048C3FD
:100320000000B4C3000034C3000034C30A0000FF5F
:1003300001CDCCCC3D6F12033B0080BB4600C0DA40
:1003400045100B0000FA430080A244FA000000A010
:10035000400D0A005B5052423A007C413A007C4F0B
:10036000763A007C57434F3A007C506E3A007C4608
:10037000533A007C4C6E3A007C42663A007C5750FF
:100380006F733A007C4D506F733A00536C65657023
:1003900000446F6F723A00436865636B00416C61A3
:1003A000726D00486F6D65004A6F6700486F6C643E
:1003B0003A0052756E0049646C65006572726F7226
:1003C0003A006F6B0D0A00536C656570696E6700CB
:1003D000526573746F72696E67207370696E646CB6
:1003E0006500526573746F72696E6720646566613B
:1003F000756C74730050676D20456E6400436865CA
:10040000636B204C696D69747300436865636B208E
:10041000446F6F720044697361626C656400456E7D
:1004200061626C65640043617574696F6E3A205552
:100430006E6C6F636B656400272448277C27245803
:100440002720746F20756E6C6F636B005265736547
:100450007420746F20636F6E74696E7565005B4DF8
:1004600053473A0011241FBECFEFD1E2DEBFCDBF0C
:1004700000E00CBF12E0A0E0B2E0E8ECF9E800E038
:100480000BBF02C007900D92A432B107D9F723E148
:10049000A4E2B2E001C01D92AA30B207E1F70E94C7
:1004A0007A390C94E2440C9400008F929F92AF92A0
:1004B000BF92CF92DF92EF92FF920F931F93CF9351
:1004C000DF937C016B01DC01EC91F0E0E65FFD4E17
:1004D0008081EF018D3229F52296818101E0912CF6
:1004E000F0E010E020E030E0A9015E01E0EDE80F6F
:1004F000EA3018F5FF5FF930E0F491101150A5E0F3
:10050000B0E00E94BB449B01AC01220F331F441F8B
:10051000551F2E0F311D411D511D2196D5018C9166
:10052000E4CF8B3219F0219600E0D9CF2296818159
:10053000FBCF9110F2CF1F5FF0CFEE3F29F4911067
:1005400003C099249394E9CFFF23F9F0CA01B901BC
:100550000E94B8414B015C0120E030E0A9010E94FB
:10056000064181112BC0002309F445C0B7FAB094AD
:10057000B7F8B094F60180829182A282B382CA5009
:10058000D241C150F701C083F1E08F2FDF91CF91AD
:100590001F910F91FF90EF90DF90CF90BF90AF90A1
:1005A0009F908F9008952AE037ED43E25CE3C50108
:1005B000B4010E9468434B015C011E5F1F3F9CF326
:1005C0001F3F59F42DEC3CEC4CEC5DE3C501B4014C
:1005D0000E9468434B015C01C6CF112321F220E049
:1005E00030E040E251E4C501B4010E9468434B0190
:1005F0005C011150F2CFD6018D929D92AD92BC92CA
:100600001397BDCF2FB7F89490918510892B8093C5
:1006100085102FBF08952FB7F89490918410892BDF
:10062000809384102FBF08959FB7F8948093831010
:100630009FBF08959FB7F8942091821080958223E0
:10064000809382109FBF08952FB7F89490918210E5
:10065000892B809382102FBF08954F925F926F92E3
:100660007F92AF92BF92CF92DF92EF92FF920F9361
:100670001F93CF93DF9307E111E1EC015C0188E167
:10068000A80EB11CF801C190D190E190F1908F01BA
:1006900020E030E0A901C701B6010E94064188238D
:1006A000A9F0488059806A807B8020E030E0A90171
:1006B000C301B2010E9428431816E4F0A30192017D
:1006C000C701B6010E9428431816A4F02496CA1543
:1006D000DB05C1F680E0DF91CF911F910F91FF9074
:1006E000EF90DF90CF90BF90AF907F906F905F9032
:1006F0004F90089581E0EFCF8F929F92AF92BF927B
:10070000CF92DF92EF92FF920F931F93CF93DF93DD
:10071000EB012FECE22E20E1F22E8C016B0188E13F
:10072000C80ED11C6991799189919991F7018190B5
:100730009190A190B1907F010E94BA41A5019401CE
:100740000E941041F80161937193819391938F01FD
:10075000CC15DD0539F7DF91CF911F910F91FF90F7
:10076000EF90DF90CF90BF90AF909F908F900895C3
:1007700090910601892F8E7159F094FB882780F99A
:1007800021E0822791FF826092FF846093FF88605E
:100790000895109287109091441197FD03C090E83E
:1007A00090938710882329F0809187108058809338
:1007B00087100895CF92DF92EF92FF920F931F93CD
:1007C000CF93DF9388E1C82E82E0D82EA2E1B2E079
:1007D000C6E0D2E000E012E030E020E090E080E00F
:1007E00041E050E0722FF601E190F1906F01F701C6
:1007F0006081FD90FA0102C0EE0FFF1FFA94E2F74C
:100800006E2339F47A01022E01C0EE0C0A94EAF745
:100810008E29E990F990F7016081F801F1908F013C
:10082000FA0102C0EE0FFF1FFA94E2F76E2339F4CB
:10083000FA0102C0EE0FFF1F7A95E2F79E2B2F5FA1
:100840003F4F2630310571F62091441126FF0CC030
:100850008923806C8095DF91CF911F910F91FF903C
:10086000EF90DF90CF900895892BF5CF6D98E4E05D
:10087000F1E080818D7F80835398AAE0B1E08C9174
:100880008F778C938C918F7D8C9383986C988081DB
:100890008E7F80835298999885988498759AE5E020
:1008A000F1E08081826080835B9AABE0B1E08C9163
:1008B00080688C938C9180628C938B9A749A8081DF
:1008C000816080835A9AA19A8D9A8C9A08956F922A
:1008D0007F928F929F92AF92BF92CF92DF92EF92D0
:1008E000FF920F931F93CF93DF93EB018C015B017A
:1008F00088E1A80EB11C89E9682E96E7792E26E9D1
:10090000822E3EE7932EC990D990E990F99020E08D
:1009100030E0A901C701B6010E9406418823B9F061
:10092000A7019601F80160817181828193810E9403
:1009300010416B017C01E894F7F89301A401C70111
:10094000B6010E942843181614F0360147010C5FC7
:100950001F4FCA15DB05B9F6B301C401DF91CF9172
:100960001F910F91FF90EF90DF90CF90BF90AF90CD
:100970009F908F907F906F900895E8E8F0E1A2E15A
:10098000B0E141915191619171914D935D936D935E
:100990007D9380E1E03AF807A1F70895BF92CF92E6
:1009A000DF92EF92FF920F931F93CF93DF937C011F
:1009B000FC01FF9600811181D281C381FC0182A1DB
:1009C00080FF33C06091C61070E090E080E00E942C
:1009D000BA412AE037ED43E25CE30E9468439B01A1
:1009E000AC01B8018D2F9C2F0E9468438B01D82F3A
:1009F000C92F20E030E040E85FE3B8018D2F9C2F45
:100A00000E942843181624F000E010E0D0E8CFE35D
:100A1000B8018D2F9C2FDF91CF911F910F91FF90E7
:100A2000EF90DF90CF90BF90089582FD17C0609146
:100A3000C51070E090E080E00E94BA412AE037EDF6
:100A400043E25CE30E9468439B01AC01B8018D2F37
:100A50009C2F0E9468438B01D82FC92FF701B3AC9C
:100A6000C4ACD5ACF6AC98014D2F5C2F6B2D7C2D12
:100A70008D2D9F2D0E94064187FFBBCF0B2D1C2D76
:100A8000DD2DCF2DB6CF80914D1090914E1098173F
:100A900039F027E4829FC00111248A5E994F08959E
:100AA00090E080E00895882381F0813041F0833028
:100AB00041F0843041F0853041F484E0089580E8CD
:100AC000089580E4089588E0089582E008958823D9
:100AD00081F0813041F0833041F0843041F0853045
:100AE00041F088E0089580E4089580E1089582E06F
:100AF000089581E00895F894F999FECF92BD81BDE3
:100B000081E08FBB20B5862F8227082E000C990B21
:100B100050E086239523892B49F084E16F3F11F043
:100B200060BD84E08FBBF99A789408952617E1F3AD
:100B300060BD84E2F7CF9F92AF92BF92CF92DF92D7
:100B4000EF92FF920F931F93CF93DF935C018A0183
:100B50007B01E40EF51EEB01912C6C01C61AD70A3D
:100B6000CE018C0D9D1D21E0911007C0292D990CFF
:100B7000330B232F221F2227221F6991962E920EBC
:100B80000E947B05CE15DF0559F7692DC501800F41
:100B9000911FDF91CF911F910F91FF90EF90DF9008
:100BA000CF90BF90AF909F900C947B056AE090E04F
:100BB00080E00E947B0545E850E06FEC70E181E049
:100BC00090E00C949B05F999FECF92BD81BD81E028
:100BD0008FBB80B508959F92AF92BF92CF92DF9264
:100BE000EF92FF920F931F93CF93DF935B018A01E4
:100BF0007C01E40EF51EEC01912C6B01C81AD90A98
:100C0000C6018C0F9D1F0E94E30521E0911007C0D3
:100C1000292D990C330B232F221F2227221F982EB8
:100C2000920E8993CE15DF0559F7C501800F911FEC
:100C30000E94E30521E030E0891511F030E020E06A
:100C4000C901DF91CF911F910F91FF90EF90DF903D
:100C5000CF90BF90AF909F900895CF93DF93C091B6
:100C60001206D09113062097C9F08091521081602E
:100C700080935210609168107091691080916A1091
:100C800090916B109B01AC010E9468436FA378A701
:100C900089A79AA71092130610921206DF91CF919E
:100CA00008952F923F924F925F926F927F928F9210
:100CB0009F92AF92BF92CF92DF92EF92FF920F93EB
:100CC0001F93CF93DF9300D01F92CDB7DEB7009173
:100CD0004E10002309F486C00983398131503983CD
:100CE00010911406131709F466C0C32ED12CE7E443
:100CF0003E9FC00111249C012A5E394F7901F90100
:100D000073A484A495A4A6A467A570A981A992A997
:100D10009B01AC010E941140F70123A934A945A908
:100D200056A90E946843B62EE72EF82E9B83262FE5
:100D3000372F482F592F672D782D892D9A2D0E94F6
:100D4000064187FF03C0B72C7401AB8287E48C9DFA
:100D5000F0018D9DF00D1124EA5EF94F8B2D9E2D33
:100D6000AF2DBB8187A390A7A1A7B2A7F9818F2F31
:100D7000F11101C084E2FF24FA94F80E30904D1076
:100D80001F1133C0131102C00E942D06E7E41E9FFD
:100D9000C00111248A5E994F9A8389833324339446
:100DA000310EF4E23F1201C0312C87E4282E0311EA
:100DB00085C0109314060F900F900F900F90DF9145
:100DC000CF911F910F91FF90EF90DF90CF90BF9048
:100DD000AF909F908F907F906F905F904F903F90DB
:100DE0002F90089524E2298378CF298187E4289FD2
:100DF000900111242A5E394F3C832B8327E4E22E95
:100E00008F2C912CFE9CC0011124FC01EA5EF94F4D
:100E1000FA83E983F11002C094E2F92EFA94F310F8
:100E200002C00E942D06E89CC001E99C900D11248F
:100E30009C012A5E394F6901F90143A454A465A4B9
:100E400076A4A301920167A170A581A592A50E9435
:100E50000641882339F1F60167A570A981A992A9F5
:100E60009B01AC010E941140F60123A934A945A9B8
:100E700056A90E946843EB81FC8127A130A541A5BA
:100E800052A50E9411404B015C01AC019B01C301C2
:100E9000B2010E942843F60118165CF487A290A6BE
:100EA000A1A6B2A629813A813C832B831F11A8CF2A
:100EB0006DCF47A250A661A672A6F4CFC32CD12C49
:100EC000329CC00111249C012A5E394F7901E981CD
:100ED000FA8147A050A461A472A4F90187A090A44C
:100EE000A1A4B2A4A5019401C301B2010E940641CC
:100EF00087FF26C0E981FA8167A570A981A992A917
:100F00009B01AC010E941140E981FA8123A934A917
:100F100045A956A90E946843A30192010E9411406D
:100F20002B013C01AC019B01C501B4010E94284387
:100F3000181634F4F70147A250A661A672A6132D25
:100F40002C9CF0012D9CF00D1124EA5EF94F23A595
:100F500034A545A556A567A170A581A592A50E94B7
:100F60000641811101C0132D3394F4E23F1201C0F8
:100F7000312CFA82E9821BCF8F929F92AF92BF925F
:100F8000CF92DF92EF92FF920F931F93CF93DF9355
:100F9000C0903011D12CA0903111B12C86E3E82EF5
:100FA00084E0F82E00E314E0D0E0C0E09C2E8C2E0C
:100FB000C6010C2E02C0959587950A94E2F780FF32
:100FC00028C08C2F0E946705F8018083C50102C0EC
:100FD000959587958A94E2F780FF1EC0892D0E941F
:100FE0005305F70180832196FFEFEF1AFF0A0F5F89
:100FF0001F4FC630D105D1F6DF91CF911F910F91D0
:10100000FF90EF90DF90CF90BF90AF909F908F9028
:101010000895F8011082DACFF7011082E4CF8091B1
:10102000441182FF23C05F9A8A9A809108018160EF
:1010300080930801129A479A289AE0E3F4E0A7E522
:10104000B4E086E394E021912D938E179F07D9F7A2
:1010500080912F118250990B880F819580935604AF
:1010600080916F00826080936F0008955F988A98E6
:10107000809108018E7F80930801129847982898E4
:10108000DCCF0E944305892B19F082E00C942403E5
:101090000895E0912E0291E09E0F20912F032917D1
:1010A00061F0F0E0E15DFD4F808390932E0280912E
:1010B000C10080628093C10004C02091821024FF8F
:1010C000ECCF0895CF93DF93CAE0D2E189918111EB
:1010D00003C0DF91CF9108950E944908F7CFCF93C5
:1010E000C82F81E3C3FF80E30E94490881E3C2FF68
:1010F00080E30E94490881E3C1FF80E30E94490820
:1011000081E3C0FF80E3CF910C9449088F929F92B6
:10111000AF92BF92CF92DF92EF92FF920F931F9305
:10112000CF93DF93CDB7DEB72D970FB6F894DEBF20
:101130000FBECDBF6B017C01042F20E030E0A90180
:101140000E94064187FF07C08DE20E944908F7FA16
:10115000F094F7F8F094102F123008F054C000FF0C
:101160000AC020E030E040E251E4C701B6010E942D
:1011700068436B017C0120E030E040E05FE3C701A1
:10118000B6010E9411400E94824110E03AE0832E95
:10119000912CA12CB12CE12FF0E061157105810596
:1011A0009105E9F581E090E08C0F9D1FE80FF91F94
:1011B00080E3101708F445C0101309C0E1E0F0E027
:1011C000EC0FFD1FE10FF11D80E380831F5FEE2414
:1011D000E394F12CEC0EFD1EE10EF11C111134C054
:1011E0002D960FB6F894DEBF0FBECDBFDF91CF9125
:1011F0001F910F91FF90EF90DF90CF90BF90AF9035
:101200009F908F90089520E030E048EC52E4C701B1
:10121000B6010E9468436B017C0112509DCFEE2401
:10122000E394F12CEC0EFD1EEE0EFF1EA5019401C1
:101230000E949144605DF7016083B901CA011F5F9C
:10124000AACF1F5F8193B5CF101303C08EE20E9417
:101250004908F70182917F010E9449081150BECFD1
:101260002091441140E020FF07C02BE832E441E226
:101270005DE30E94684341E00C948608209144118C
:1012800043E020FF07C02BE832E441E25DE30E9427
:10129000684344E00C9486080F931F93CF938C010E
:1012A000C0E0F80161917191819191918F010E944B
:1012B0003E09C53019F08CE20E944908CF5FC63064
:1012C00081F7CF911F910F9108958F929F92AF92C6
:1012D000BF92CF92DF92EF92FF920F931F93CF9323
:1012E000DF9300D000D000D01F92CDB7DEB76115DC
:1012F000710581059105A9F480E32A960FB6F8944B
:10130000DEBF0FBECDBFDF91CF911F910F91FF9038
:10131000EF90DF90CF90BF90AF909F908F900C9404
:10132000490800E09E012F5F3F4F79012AE0822E9D
:10133000912CA12CB12C6701C00ED11CA5019401E8
:101340000E949144F6016083B901CA010F5F6115E3
:1013500071058105910579F70E0D1F2D111DE01600
:10136000F10699F42A960FB6F894DEBF0FBECDBFF2
:10137000DF91CF911F910F91FF90EF90DF90CF9071
:10138000BF90AF909F908F900895F80182918F0148
:10139000805D0E944908E3CFCF93DF93843658F0F5
:1013A0006AE00E947144C0E3C90F6AE00E94714480
:1013B000D0E3D90F04C0C0E0D0E08A30B0F7805D40
:1013C0000E944908DD2319F08D2F0E944908CC2383
:1013D00029F08C2FDF91CF910C944908DF91CF91A8
:1013E0000895CF93DF93EC01FE0184912196811142
:1013F00003C0DF91CF9108950E944908F5CF81E5A0
:1014000093E00C94F109CF93C82F8BEB93E00E94EB
:10141000F1098C2F0E94CC09CF910C94FF09811106
:1014200004C082EC93E00C94F1090C94030ACF926F
:10143000DF92EF92FF92CF93DF93D82F6A017B0167
:10144000C22F84E20E9449088D2F0E94CC098DE3AF
:101450000E9449084C2FC701B6010E948608DF91FF
:10146000CF91FF90EF90DF90CF900C94FF09CF9336
:10147000DF93D82FC62F84E20E9449088D2F0E9447
:10148000CC098DE30E9449088C2F0E94CC09DF9182
:10149000CF910C94FF09EF92FF920F931F93CF937C
:1014A000DF9381E080934C1060912F1170E080E019
:1014B0000E94370A6091321170E081E00E94370A81
:1014C0006091301170E082E00E94370A6091311122
:1014D00070E083E00E94370A6091441162FB662746
:1014E00060F970E084E00E94370A6091441166FB65
:1014F000662760F970E085E00E94370A8091441108
:10150000082E000C990B692F661F6627661F70E076
:1015100086E00E94370A6091331170E08AE00E94F1
:10152000370A409134115091351160913611709104
:10153000371123E08BE00E94170A40913811509137
:10154000391160913A1170913B1123E08CE00E94B7
:10155000170A60914411617070E08DE00E94370AB3
:101560006091441165FB662760F970E084E10E9498
:10157000370A6091441163FB662760F970E085E1EA
:101580000E94370A609144116295617070E086E1B3
:101590000E94370A6091451170E087E10E94370A86
:1015A0004091461150914711609148117091491135
:1015B00023E088E10E94170A40914A1150914B1193
:1015C00060914C1170914D1123E089E10E94170A3E
:1015D00060914E1170914F118AE10E94370A40913B
:1015E000501150915111609152117091531123E09B
:1015F0008BE10E94170A40913C1150913D1160917E
:101600003E1170913F1120E08EE10E94170A409137
:10161000401150914111609142117091431120E0AD
:101620008FE10E94170A609144116695617070E025
:1016300080E20E94370A84E6F82E10E0CFECD0E179
:1016400000E0E02EEF0C123021F1133079F111306F
:10165000D9F0488159816A817B8123E08E2D0E94D7
:10166000170A0F5F2496063061F78AE0F80E1F5FB5
:101670008CE8F812E3CF10924C10DF91CF911F91BC
:101680000F91FF90EF900895488D598D6A8D7B8D55
:10169000E4CF20E030E041E655E468A979A98AA9C1
:1016A0009BA90E941041AB01BC01D7CFFE01E85BB2
:1016B000FF4F40815181628173817058CECF8DE59B
:1016C0000E9449080C94FF09CF93DF93CDB7DEB792
:1016D00068970FB6F894DEBF0FBECDBF84E593E0E8
:1016E0000E94F10960EA70E1CE0101960E947C033C
:1016F000CE0101960E944C098AE30E94490880911C
:10170000BE100E94CC090E945F0B68960FB6F89439
:10171000DEBF0FBECDBFDF91CF9108959091BA107B
:10172000911116C09091020180FF13C092609093B6
:1017300002019091020181FF0EC09160909302011D
:1017400082FF0BC0119A83FF0AC0139A1092C9102E
:1017500008959D7FECCF9E7FF1CF1198F4CF139821
:10176000F5CF80910201869581709091020190FDE4
:101770008260119984601399886008959091BA10DD
:1017800091110CC086FF0BC02C9A87FF0AC0809174
:1017900002018064809302011092C91008952C9870
:1017A000F4CF809102018F7BF5CF2C98E2E0F1E03D
:1017B00080818F7B808308952C9B06C080E490916C
:1017C000020196FD8068089580E0F9CF4F925F9204
:1017D0006F927F92AF92BF92CF92DF92EF92FF9281
:1017E0000F931F93CF93DF93CDB7DEB7C854D109C2
:1017F0000FB6F894DEBF0FBECDBF88E1E8E8F0E198
:10180000DE01119601900D928A95E1F7BE016F5F9E
:101810007F4FCE0149960E947C038CE30E944908C9
:101820008091B910883009F425C108F000C18130D9
:1018300009F429C108F419C1823009F427C18430A0
:1018400009F41EC180913311082F017080FF33C14C
:101850008091CA10882309F42EC184E893E00E9485
:10186000F109CE0149960E944C098091331181FF04
:1018700020C088E793E00E94F10990914E1080917A
:101880004D10981708F466C18D5D891B0E94CC0924
:101890008CE20E9449088091501090914F10981747
:1018A00008F45AC190914F10981B892F80950E947F
:1018B000CC090E9443050097F1F0FC01C3A0D4A01D
:1018C000E5A0F6A0C114D104E104F104A1F083E77E
:1018D00093E00E94F109C701B601F7FE0AC08DE24C
:1018E0000E94490866277727CB016C197D098E096C
:1018F0009F090E9465098EE693E00E94F10980919C
:10190000B9108C7709F42DC160916810709169103D
:1019100080916A1090916B100E9430098CE20E94B5
:1019200049086091CB107091CC108091CD109091AE
:10193000CE1040E00E9486080E94DA03182F0E9411
:10194000B803082F809106018078F0908710F82660
:10195000812F802B8F2909F43FC089E693E00E94F4
:10196000F109FF2019F080E50E9449081123F1F0E8
:1019700010FF03C088E50E94490811FF03C089E5F4
:101980000E94490812FF03C08AE50E94490813FF1C
:1019900003C081E40E94490814FF03C082E40E944E
:1019A000490815FF03C083E40E9449080023A1F001
:1019B00000FF03C084E40E94490801FF03C082E5E0
:1019C0000E94490802FF03C088E40E94490803FFFF
:1019D00003C083E50E9449088091CA10882309F456
:1019E000C4C081508093CA101091C910112309F40A
:1019F000D5C011501093C9108EE30E9449080E946F
:101A0000FF09C85BDF4F0FB6F894DEBF0FBECDBF36
:101A1000DF91CF911F910F91FF90EF90DF90CF90CA
:101A2000BF90AF907F906F905F904F9008958032FD
:101A300021F198F4803109F005CF8091BB1087FD2A
:101A40001CC08CEA93E00E94F1098091BB1080FFDA
:101A50002EC080E30E944908F5CE8034D1F0803852
:101A600009F0F0CE8BE893E002C086EB93E00E9491
:101A7000F109E8CE82EB93E0FACF88EA93E0F7CF62
:101A800083EA93E0F4CF8DE993E0F1CF87E993E027
:101A9000EECF81E993E00E94F1098091BB1083FFB2
:101AA00002C083E3D7CF82FF04C085FFD2CF81E39A
:101AB000D1CF82E3CFCF4090B4115090B511609058
:101AC000B6117090B71184E8A82E81E1B82E6E018E
:101AD00081E3C80ED11CFE0179967F0110E0F5016B
:101AE00061917191819191915F0124893589468934
:101AF00057890E941140F6016193719381939193EC
:101B00006F01123041F4A30192010E94114069AFAC
:101B10007AAF8BAF9CAF011112C0F60134972081D0
:101B2000318142815381F70160817181828193818A
:101B30000E941040F70160837183828393831F5F4B
:101B4000F4E0EF0EF11C163051F6011186CE8DE750
:101B500093E085CE815099CE90914F108150891B92
:101B6000A6CE60E070E0CB01D7CE8091B9108C7723
:101B700099F08DE18093CA108091C910811103C042
:101B800081E08093C91083E693E00E94F109CE01C1
:101B9000C1960E944C0928CF89E0ECCF8091B91002
:101BA0008C7709F44FC083E18093C9108EE593E0F0
:101BB0000E94F1098091C5100E94CC098CE20E941C
:101BC00049088091C6100E94CC098CE20E94490805
:101BD0008091C7100E94CC09A59B07C08091A000EE
:101BE00087FF03C0739930C011E00E94DC0BF82E10
:101BF0000E94B10B082F111105C0F11003C08823FA
:101C000009F4FACE8AE593E00E94F109112331F03C
:101C100083E5113009F083E40E944908F6FE03C011
:101C200086E40E944908F7FE03C08DE40E9449083B
:101C3000002309F4E1CE84E40E944908802F0E9429
:101C40006F08DACE89E0B0CF12E0CFCF9093A90031
:101C50008093A800892B31F48091A0008F77809326
:101C6000A00008958091A0008068F9CFE0EAF0E03C
:101C700080818F778083A5980895E0EAF0E08081E5
:101C80008F778083A1E0B1E08C9188608C9382E0B3
:101C900080838AE18093A1008FEF90E09093A7006A
:101CA0008093A6009D9A6B9A20914011309141112A
:101CB000409142115091431160913C1170913D113E
:101CC00080913E1190913F110E9410409B01AC0108
:101CD00060E070E08EE793E40E94104160932A0276
:101CE00070932B0280932C0290932D020C94360E4D
:101CF00068E870E18CE691E10C947C03E2E1F0E1AC
:101D000084E3DF011D928A95E9F710924D1010923D
:101D10004E1081E0809315061092140608954F929C
:101D20005F926F927F928F929F92AF92BF92CF926B
:101D3000DF92EF92FF920F931F93CF93DF93EC010B
:101D400086E4E82E80E1F82E6E01812C912C54015E
:101D500010E0E6E4F0E180E007C02191D7019C911A
:101D6000291709F464C08F5F8113F7CF00E0F601F3
:101D700041905190619071906F0120E030E0A90195
:101D8000C301B2010E940641882381F001110EC0F7
:101D9000A3019201C301B2010E9468439B01AC01FF
:101DA000C501B4010E9411404B015C011F5FFFEFB0
:101DB000EF1AFF0A163069F6C501B4010E94074404
:101DC0006B017C01AC019B0160E070E080E89FE367
:101DD0000E9410412B013C018E01085E1F4F69914A
:101DE0007991899199915E0124E0A21AB108A30129
:101DF00092010E946843D5016D937D938D939C93CE
:101E00001397C017D10759F7C701B601DF91CF91DA
:101E10001F910F91FF90EF90DF90CF90BF90AF9008
:101E20009F908F907F906F905F904F90089501E00A
:101E30009ECF4F925F926F927F928F929F92AF92BE
:101E4000BF92CF92DF92EF92FF926B017C01809064
:101E5000401190904111A0904211B09043114090D8
:101E60003C1150903D1160903E1170903F11A301C4
:101E70009201C501B4010E94284387FF1BC06091F5
:101E8000C71070E090E080E00E94BA412AE037ED90
:101E900043E25CE30E946843A70196010E94684305
:101EA0006B017C01AC019B01C301B2010E940641A0
:101EB0001816BCF04092CB105092CC106092CD100E
:101EC0007092CE108FEF90E0FF90EF90DF90CF9068
:101ED000BF90AF909F908F907F906F905F904F904A
:101EE0000895A7019601C501B4010E94284387FD0A
:101EF0001FC020E030E0A901C701B6010E940641E1
:101F000081110BC01092CB101092CC101092CD10FA
:101F10001092CE1090E080E0D7CF8092CB109092BC
:101F2000CC10A092CD10B092CE1081E090E0CCCF3A
:101F3000C092CB10D092CC10E092CD10F092CE1087
:101F4000A5019401C701B6010E94104020912A0208
:101F500030912B0240912C0250912D020E94684337
:101F60000E94F54120E030E040E85FE30E9411402C
:101F70000E948941CB01A8CF9091BA1091110EC057
:101F800081110DC01092CB101092CC101092CD1078
:101F90001092CE100E94360E1092C9100895803112
:101FA00091F473989091441191FF05C0803219F417
:101FB00040E050E0BA01CB01BA010E94190F0E9423
:101FC000260EA59AE9CF739AEDCF2F923F924F92AA
:101FD0005F926F927F928F929F92AF92BF92CF92B9
:101FE000DF92EF92FF920F931F93CF93DF93CDB7C2
:101FF000DEB7C257D1090FB6F894DEBF0FBECDBF12
:10200000A7967FAF6EAFA797B0904E102B2C312CB8
:1020100027E4B29EA0011124BA016A5E794FA3960B
:102020007FAF6EAFA397DB011D922A95E9F7A796C4
:10203000EEADFFADA7972485DB0192962C93FB01B3
:10204000ED5BFF4FA796AEADBFADA79714964D9130
:102050005D916D917C911797408351836283738367
:1020600018964D915D916D917C911B97A396EEAD65
:10207000FFADA39743A354A365A376A321FFB8C1E3
:1020800028E1E8E8F0E1DE01D19601900D922A9571
:10209000E1F7A4968FAFA497A5969FAFA5972FECD5
:1020A00030E1E1963FAF2EAFE197BE01675E7F4F13
:1020B000AF967FAF6EAFAF97CE01C196AD969FAF93
:1020C0008EAFAD97DE01A75BBF4FA996BFAFAEAF96
:1020D000A997AB96BFAFAEAFAB97912C812C10E018
:1020E00000E027E4229DC001239D900D1124FC01F6
:1020F000E25DF94FE396FFAFEEAFE397A02EA59612
:10210000AEADBFADA5976D917D918D919D91A59639
:10211000BFAFAEAFA597E196EEADFFADE1974190B1
:10212000519061907190E196FFAFEEAFE197A301FE
:1021300092010E9468430E943543AF96AEADBFAD99
:10214000AF976D937D938D939D93AF96BFAFAEAFD9
:10215000AF97AD96EEADFFADAD97C190D190E19048
:10216000F190AD96FFAFEEAFAD976C197D098E097A
:102170009F099B01AC0197FF07C022273327A901C4
:10218000261B370B480B590BA396EEADFFADA3975B
:10219000E80DF91D2083318342835383E396AEAD6E
:1021A000BFADE397CD90DD90ED90FC90C216D306C5
:1021B000E406F50610F469017A01E396EEADFFAD91
:1021C000E397C082D182E282F3820E94BA41A301E6
:1021D00092010E941041AB96AEADBFADAB976D932F
:1021E0007D938D939D93AB96BFAFAEAFAB9720E041
:1021F00030E0A9010E94064187FF0CC08A2D0E9491
:102200005305A396EEADFFADA397E00FF11F948D9C
:10221000892B848F0F5F1F4FB4E08B0E911C06300B
:10222000110509F06BCF80E0CD28CE28CF2809F426
:10223000C5C0CE01875B9F4F0E948F0E6B017C0152
:1022400087E4829D8001839D100D11240A5E194F41
:10225000F801C3AAD4AAE5AAF6AABE01675B7F4F1C
:102260008FEF90E10E946704D8019F966D937D9354
:102270008D939C93D297BE01675B7F4F87EE90E171
:102280000E946704F80163AF74AF85AF96AFA2A058
:10229000015C1F4FA0FEB0C0D8016D937D938D935C
:1022A0009C93139780914D10B81611F0A1FEBFC0FA
:1022B00087E4829DF001839DF00D1124EA5EF94FC1
:1022C00017A210A611A612A617AA10AE11AE12AE32
:1022D00087E4829D8001839D100D11240A5E194FB1
:1022E000D80192968C9181FD68C0A3968EAD9FAD6A
:1022F000A3970E94CE046B017C01809042109090C5
:102300004310A0904410B0904510AC019B01C50152
:10231000B4010E94064187FF70C1A5019401C50167
:10232000B4010E946843F80163A774A785A796A724
:1023300087E4829D8001839D100D11240A5E194F50
:10234000F80187A890ACA1ACB2ACA501940163A53B
:1023500074A585A596A50E94284318163CF4D801BB
:102360009B968D929D92AD92BC929E97C092421088
:10237000D0924310E0924410F092451088E1FE01A3
:10238000E75BFF4FAAE2B0E101900D928A95E1F779
:1023900088E1FE017996A2E1B0E101900D928A9563
:1023A000E1F78091150680934E108F5F843209F417
:1023B00080E0809315060E94510681E0CE58DF4FE1
:1023C0000FB6F894DEBF0FBECDBFDF91CF911F9146
:1023D0000F91FF90EF90DF90CF90BF90AF909F90C4
:1023E0008F907F906F905F904F903F902F900895C7
:1023F00028E1E2E1F0E147CEA796EEADFFADA79769
:102400002081318142815381A3FC07C0D8012D93E3
:102410003D934D935C93139745CFC701B6010E943E
:102420006843F80160837183828393833BCF2AE200
:1024300030E1A5963FAF2EAFA5978E010F5F1F4FDE
:10244000A9966EAD7FADA997685E7F4FAD967FAFC1
:102450006EAFAD97C12CD12C7601A6960FAFA69783
:10246000AA961FAFAA97A596AEADBFADA5978D90C2
:102470009D90AD90BD90A596BFAFAEAFA597A99624
:10248000EEADFFADA9974190519061907190A996E2
:10249000FFAFEEAFA997A3019201C501B4010E945D
:1024A00068439B01AC01C701B6010E9410406B015B
:1024B0007C01A5019401C301B2010E941040D80122
:1024C0006D937D938D939D938D01AD96EEADFFAD94
:1024D000AD97A9962EAD3FADA997E217F30719F670
:1024E0002FEE3FEF4FE75FE3C701B6010E9428439D
:1024F00018164CF487E4829DF001839DF00D1124A1
:10250000EA5EF94FE1CE2FEE3FEF4FE75FEBC701F9
:10251000B6010E94064187FF11C087E4829DF00149
:10252000839DF00D1124EA5EF94F89E996E7A6E94B
:10253000BEE787AB90AFA1AFB2AFCACEA6968FADC4
:10254000A697AA969FADAA970E948F0EA6966FADEA
:10255000A697AA967FADAA978FEF90E10E94670495
:102560004B015C01A701960160E070E080E89FE309
:102570000E94104020E030E040E05FE30E946843AA
:102580000E9407446B017C01209134113091351178
:102590004091361150913711C501B4010E94684332
:1025A000A70196010E9468434B015C01A7019601B7
:1025B00060E070E080E89FE30E9410409B01AC0166
:1025C000C501B4010E9410416B017C0120E030E0A4
:1025D000A9010E94064187FF03C0C12CD12C7601BE
:1025E00087E4829DF001839DF00D1124EA5EF94F8E
:1025F000C7AAD0AEE1AEF2AE6BCEA7019601C7017D
:10260000B6010E946843D8019B966D937D938D938C
:102610009C939E978DCE80916F008D7F80936F00ED
:1026200080918100887F81608093810010923C04BA
:10263000809132119091B9108F3FE9F4209183106D
:10264000211119C09038C9F490E00197C0F481E0DD
:102650009091441192FF02C091E089278823B1F044
:102660005F9A8A9A80910801816080930801129A8A
:10267000479A289A0895943039F780E0E9CFEFE936
:10268000FFE03197F1F700C00000DFCF5F988A9834
:10269000809108018E7F80930801129847982898AE
:1026A00008950E940B13E1E5F0E181E3DF011D9243
:1026B0008A95E9F7EDE3F4E085E4DF011D928A9560
:1026C000E9F71092130610921206109282041092EB
:1026D000D40481E08093830410923C040E94BC07E0
:1026E000E6E3F4E0ADE5B4E081918D9384E0EC3372
:1026F000F807D1F781B38E7F90913004892B81BB8D
:1027000081B38D7F90913604892B81BB81B38F7B00
:1027100090913104892B81BB81B38F7790913704DD
:10272000892B81BB80910B01877F90913204892B8B
:1027300080930B0180910B018D7F90913804892B40
:1027400080930B0182B18F7E90913304892B82B9E3
:1027500082B18F7B90913904892B82B988B18D7FAA
:1027600090913404892B88B988B1877F90913A047D
:10277000892B88B980910B018E7F90913504892B2C
:1027800080930B0185B18B7F90913B04892B85B998
:1027900008958091821084FD1DC080E10E94240371
:1027A0000E94360E0E94D50B9091B910892F8C7221
:1027B00021F48091BD10867069F0943049F48091C5
:1027C0008310811103C086E00E9414030C940B1344
:1027D00083E0FACF08952F923F924F925F926F92CB
:1027E0007F928F929F92AF92BF92CF92DF92EF92A1
:1027F000FF920F931F93CF93DF93CDB7DEB7EB9785
:102800000FB6F894DEBF0FBECDBF8091BD1080FD26
:102810004DC29091820480918304981709F446C2B6
:102820008091120690911306892B09F080C01091B7
:10283000BD1012FF54C280914E1027E4829FC00148
:1028400011248A5E994F909313068093120640914B
:102850001206509113065A874987452B09F426C260
:102860000091521000FF3EC210925210109264105C
:10287000109265101092661010926710A985BA85A3
:102880009F968D919D910D90BC91A02D89839A83E7
:10289000AB83BC839C01AD0160E070E080E09FE30E
:1028A0000E9410416D837E838F839887E985FA8526
:1028B00043A854A865A876A887A090A4A1A4B2A410
:1028C00011FF0BC3F2E0F0936310A50194010E9485
:1028D00068439B01AC01C301B2010E9410406B012F
:1028E0007C0120E030E0A9010E94064187FFE4C29C
:1028F00029813A814B815C81CA01B9010E94114052
:10290000A30192010E9468439B01AC01C501B4017F
:102910000E9410400E9407446093701070937110E1
:10292000809372109093731018601093BD10E09113
:10293000D404F8E0EF9FD0011124BA8BA98BFD01DC
:10294000EC57FB4F809151108483209112063091F7
:1029500013063A872987D901D396BC91BDA3F90103
:10296000F4A9FEA3D901D596BC91BFA3F901F6A99C
:10297000F8A720915F103091601040916110509144
:1029800062106DA17EA18B2F9F2F0E94104069AB1A
:102990007AAB8BAB9CAB20E030E0A9010E940641F2
:1029A00087FF04C019AA1AAA1BAA1CAA20916C109E
:1029B0002D8B30916D103E8B40916E104F8B50914E
:1029C0006F10588F809174108D8F909175109E8F1D
:1029D000A0917610AF8FB0917710B8A3E0917810E6
:1029E000E9A7F0917910FAA720917A102BA73091DE
:1029F0007B103CA7409163104D87509168105AAFEF
:102A0000809169108BAF00916A1010916B109091BA
:102A100064109DA7A0916510AEA7B0916610BFA7E6
:102A2000E0916710E8ABF0917010FEAB209171104F
:102A30002FAB3091721038AF4091731049AF29A578
:102A40003AA54BA55CA56D8D7E8D8F8D98A10E94BA
:102A500006418111D1C352E05DAB9DA1998FAEA11A
:102A6000AA8FBFA1BB8FE8A5EC8F8EE3C82E83ECA5
:102A7000D82E8EE2E82E89E3F82E412C512C32011B
:102A8000A701960129A33AA34BA35CA35D8551300E
:102A900009F44DC4A985BA85513008F4DDC353301B
:102AA00009F07BC49F962D913D914D915C91D297F9
:102AB000C701B6010E9468434B015C012D893E8924
:102AC0004F89588D6AAD7BADC8010E9410409B01B3
:102AD000AC01C501B4010E94284387FD97C32D8D29
:102AE0003E8D4F8D58A16DA17EA18FA198A50E940A
:102AF00010409B01AC010E9411406B017C012D89AB
:102B00003E894F89588D6AAD7BADC8010E94114046
:102B10009B01AC01C701B6010E9410416B017C0111
:102B2000BD89BAAFEE89EBAF0F89188D2D8C3E8C25
:102B3000FF8DF98328A12D8331E03D87A701960100
:102B4000C301B2010E9411402B013C0129A13AA10D
:102B50004BA15CA10E94064187FF89C4A301920199
:102B600069A17AA18BA19CA10E9410406B017C01FC
:102B7000910149815D816DA57EA58FA598A90E94CF
:102B8000064187FD3CC38AAD9BADD8018093681098
:102B900090936910A0936A10B0936B103D853093A9
:102BA0006310E091D504F091D60482A1811104C094
:102BB0009091BD1093FF33C0A985BA8592969C91E0
:102BC0009297907309F47EC4FD01ED5BFF4FC080C6
:102BD000D180E280F3808823A9F020917C1030918D
:102BE0007D1040917E1050917F106AAD7BADC80181
:102BF0000E9468439B01AC01C701B6010E94684373
:102C00006B017C01C701B6010E94190F90938110DE
:102C1000809380108091BD10877F8093BD1080913C
:102C2000801090918110E989FA89EC57FB4FFAA343
:102C3000E9A39783868320915B1030915C104091CB
:102C40005D1050915E10B10189819D810E946843A1
:102C500069877A878B879C870E94EF406B017C0194
:102C600060915710709158108091591090915A109E
:102C70000E94EF404B015C01A70196010E941040A9
:102C80000E9489416D877E878F87988BED85FE85B1
:102C9000A9A1BAA1ED93FC93EF2B09F020C4809178
:102CA000BD1081FF1CC481608093BD10EB960FB6F0
:102CB000F894DEBF0FBECDBFDF91CF911F910F9172
:102CC000FF90EF90DF90CF90BF90AF909F908F904C
:102CD0007F906F905F904F903F902F9008950E944B
:102CE0004305B1CD809151108F5F893009F480E0A8
:102CF00080935110282F30E053E2859FC0011124AA
:102D0000DC01A952BB4F7D01B093D604A093D5043A
:102D1000E985FA857C9690E080E04191D701A80F83
:102D2000B91F5C964C93019686309105B1F7E98501
:102D3000FA8590E080E04191519161917191D701C4
:102D4000A80FB91F689412F8440F551F661F771F0C
:102D50001694D1F74D935D936D937C9313970496DE
:102D60008831910541F7E985FA85608D718D828DF5
:102D7000938DF3E2F29FA001F39F500D1124FA010D
:102D8000E952FB4F4B015C0123E0880C991CAA1C03
:102D9000BB1C2A95D1F7808E918EA28EB38E0E9495
:102DA000B8416093571070935810809359109093C6
:102DB0005A10A985BA85D3962D913D914D915C917C
:102DC000D6970E9410419B01AC0120935B10309379
:102DD0005C1040935D1050935E1060E070E080EAFC
:102DE0009FE30E94104160935F1070936010809386
:102DF0006110909362101092531010925410109220
:102E000055101092561011FD02C003FF42C0609190
:102E10007010709171108091721090917310609386
:102E200068107093691080936A1090936B109B01E7
:102E3000AC010E946843E985FA8567A370A781A762
:102E400092A7077F00935210F70112A280914411BC
:102E500081FF0CCDA985BA8592968C91929785FFBA
:102E600005CDFD01FF96208131814281538160E0D3
:102E700070E080E89FE30E94104160937C107093A3
:102E80007D1080937E1090937F1021E0F70122A3A4
:102E9000EDCCA985BA8597966D917D918D919C9188
:102EA0009A970E940744609368107093691080930A
:102EB0006A1090936B10C8CFC0926410D0926510C6
:102EC000E0926610F09267101092701010927110DC
:102ED000109272101092731027CD109263104092CE
:102EE000741050927510609276107092771012FFE5
:102EF0006AC010927010109271101092721010929D
:102F00007310C12CD12C760189859A850E94CE043C
:102F1000698B7A8B8B8B9C8B9B01AC010E946843E5
:102F200069877A878B879C87A50194010E94064157
:102F300087FF93C029853A854B855C85C501B4011F
:102F40000E9410402D813E814F8158850E94684328
:102F50009B01AC01C301B2010E9410406093741048
:102F600070937510809376109093771020E030E086
:102F7000A9010E94064118160CF449C032E03093B2
:102F8000631029813A814B815C81CA01B9010E9499
:102F90001140A30192010E9468439B01AC01C5014D
:102FA000B4010E9410400E94074460937010709317
:102FB00071108093721090937310809152108860FA
:102FC00080935210B1CCE0914D10EF5FE43209F4E0
:102FD000E0E080914E10C12CD12C76018E1751F07B
:102FE00027E42E9FF0011124EA5EF94FC7A0D0A478
:102FF000E1A4F2A4C701B6010E94074460937010D7
:103000007093711080937210909373107DCFA7010D
:10301000960169857A858B859C850E9410402D815B
:103020003E814F8158850E94684360937810709369
:10303000791080937A1090937B1089899A89AB8953
:10304000BC8980936C1090936D10A0936E10B09318
:103050006F1093E09093631067CCA7019601C501B0
:10306000B4010E9410402D813E814F8158850E94FD
:103070006843A30192010E94114020E030E040E04B
:103080005FE30E9468436D877E878F87988B20E07F
:1030900030E0A9010E94284318160CF094C0A30147
:1030A00092016D857E858F8598890E94064187FFF4
:1030B00088C0A701960169857A858B859C850E94C9
:1030C00010402D813E814F8158850E9468439B01AD
:1030D000AC01209378103093791040937A1050937C
:1030E0007B106D857E858F8598890E9428431816F0
:1030F000BCF529893A894B895C8920936C103093FF
:103100006D1040936E1050936F10A5019401698566
:103110007A858B859C850E940641811104C031E02F
:103120003093631001CCA501940169857A858B8564
:103130009C850E9410402D813E814F8158850E94C0
:1031400068439B01AC01C301B2010E94104060932F
:103150007410709375108093761090937710E4CB71
:103160008D859E85AF85B889809374109093751076
:10317000A0937610B0937710809378109093791085
:10318000A0937A10B0937B1029813A814B815C81A6
:10319000CA01B9010E9411402D853E854F8558898D
:1031A0000E946843A70196010E9411400E940744B3
:1031B00060936C1070936D1080936E1090936F10ED
:1031C000B3CB92E047CF8091701090917110A09195
:1031D0007210B091731010927410109275101092BA
:1031E00076101092771080936C1090936D10A093CE
:1031F0006E10B0936F1098CB81E08DAB2ECC298EE2
:103200003A8E39813B8F4D814C8F40CC20E030E0AD
:1032100040E05FE3C501B4010E9468439B01AC013B
:103220006AAD7BADC8010E941040A70196010E94C3
:1032300068439B01AC01698D7A8D8B8D9C8D0E94BA
:1032400010401B0189839D83A50194016AAD7BAD6C
:10325000C8010E94104067C09F962D913D914D91ED
:103260005C91D297C701B6010E9468434B015C0193
:1032700020E030E040E05FE30E9468432AAD3BADD0
:10328000A8010E941140A70196010E9468439B017A
:10329000AC01698D7A8D8B8D9C8D0E9410401B0135
:1032A00089839D839B01AC016D8D7E8D8F8D98A14F
:1032B0000E942843181684F52D8D3E8D4F8D58A100
:1032C0006DA17EA18FA198A50E9410409B01AC0129
:1032D0000E9411406B017C012D893E894F89588DD8
:1032E0006AAD7BADC8010E9411409B01AC01C701D2
:1032F000B6010E9410416B017C01BDA9BD87ED891B
:10330000EAAFFE89FBAF0F89188D2D8C3E8C2F8D77
:10331000298338A13D8312CCA50194016AAD7BAD10
:10332000C8010E9411406AAF7BAF8C0107CC2D8988
:103330003E894F89588DC701B6010E9468439B01A1
:10334000AC01698D7A8D8B8D9C8D0E9410401B0184
:1033500089839D8329A53AA54BA55CA50E940641BA
:1033600087FFECCB29A53AA54BA55CA5698D7A8D85
:103370008B8D9C8D0E9410402D893E894F89588DE0
:103380000E9410416B017C0129A43AA44BA54983FA
:103390005CA55D8382E08D87D1CB9F962D913D9179
:1033A0004D915C91D297C701B6010E9468434B01D1
:1033B0005C01AC019B016AAD7BADC8010E94284352
:1033C00018163CF520E030E040E05FE3C501B401B1
:1033D0000E9468439B01AC016AAD7BADC8010E94AD
:1033E0001040A70196010E9468439B01AC01698DC2
:1033F0007A8D8B8D9C8D0E9410401B0189839D834B
:103400002DA53EA54FA558A90E94284318160CF4D7
:103410001BCF2DA53EA54FA558A9698D7A8D8B8D03
:103420009C8D0E9410409B01AC010E9411406B01D9
:103430007C012EA93FA948AD59AD6AAD7BADC8014D
:103440000E9411409B01AC01C701B6010E941041CE
:103450006B017C01BEA9BAAFEFA9EBAF08AD19AD06
:103460002DA43EA4FFA5F98328A92D8367CB29A904
:103470003AA94BA95CA9B10189819D810E94284389
:1034800018168CF42EE333EC4EE259E369A17AA1CD
:103490008BA19CA10E94114069A37AA38BA39CA33A
:1034A000A301920161CB8AAD9BADD80180936810D6
:1034B00090936910A0936A10B0936B104D85409360
:1034C00063106FCB1092CB101092CC101092CD10D5
:1034D0001092CE1010928110109280109BCB2091F0
:1034E0005310309154104091551050915610C30113
:1034F000B2010E9411402B013C0129853A854B8580
:103500005C85C501B4010E9410409B01AC01C30160
:10351000B2010E9410414B015C0120EC31EE44E607
:103520005EE40E9468430E94EF400E948941E9895D
:10353000FA89EC57FB4F603D37E073078105910531
:1035400008F059C01582E989FA89EC57FB4F73835B
:103550006283809183048093D4048F5F8A3009F45E
:1035600080C080938304E0911206F0911306C1019C
:10357000A981BD8183AB94ABA5ABB6ABC09257100C
:10358000D0925810E0925910F0925A1029853A853D
:103590004B855C85C701B6010E941040A5019401CE
:1035A0000E94684360935310709354108093551099
:1035B00090935610209164103091651040916610E0
:1035C00050916710B10189819D810E94064181114E
:1035D00020C99091BD10998720E030E0A901B10188
:1035E00089819D810E9428431816F4F5A985A16060
:1035F000A093BD105BCB603A4FE074078105910545
:1036000020F551E05583E989FA89EC57FB4F258174
:10361000022E04C096958795779567950A94D2F700
:103620004D855E8502C0440F551F2A95E2F75183F0
:1036300040836115710551E08507910508F483CF3A
:103640008FEF9FEF9383828384CF6034AFE17A075B
:103650008105910518F4B2E0B583D5CF23E0258329
:10366000D2CF109283047FCFB985B2FF04C0B1607E
:10367000B093BD101BCB10921306109212069091BE
:103680004D1080914E10891709F4C3C881E0890F4D
:10369000843209F480E020911406921302C08093D2
:1036A000140680934D10B5C84F925F926F927F922F
:1036B0008F929F92AF92BF92CF92DF92EF92FF9242
:1036C0000F931F93CF93DF93C0918310CC2391F17D
:1036D00081E08093B91085EC92E00E94F1098C2F73
:1036E0000E94CC090E94FF0985EF91E00197E9F55E
:1036F000C150C230D0F48EE594E00E94F1098CE410
:1037000094E00E94F1090E945F0B80E10E941A037D
:103710008091821080FF05C00E94E60B81E00E942C
:103720001A038091821084FFF3CF8FB7F894109220
:1037300083108FBFC0918210CC2309F4E2C0C4FF74
:103740001BC081E08093BA10DF91CF911F910F9140
:10375000FF90EF90DF90CF90BF90AF909F908F90B1
:103760007F906F905F904F900895EFE9FFE0319761
:10377000F1F700C00000BACFC0FF05C00E94E60B01
:1037800081E00E941A038C2F887E09F46AC0809120
:10379000B910982F937009F053C08872A9F08091E6
:1037A000BB10807C89F40E942D0682E08093BD10BE
:1037B0008091B910803241F480E2C7FD0CC0809145
:1037C000BB1080688093BB108091B910811103C039
:1037D00091E09093BB10C6FF07C085FD05C0909196
:1037E000BB1090649093BB10C3FF05C0807E19F49A
:1037F00080E18093B910C5FF23C08EE594E00E945C
:10380000F1098AE094E00E94F1090E945F0B809127
:10381000BB1087FD10C09091B910903451F483FF14
:1038200004C0837E82608093BB1080E48093B910D3
:1038300002C09038D1F78091BB1080628093BB109A
:10384000C7FF0CC08091B910813029F48091BB1062
:1038500085608093BB1080E88093B91088EE0E9449
:103860001A03C1FF28C08C2F887611F58091B910FA
:10387000803441F48091BB1085FD04C084FF02C1F7
:103880001092B9108091B910882309F401C184FF06
:103890000FC09091BB1090FF0BC0803109F0F8C0B1
:1038A0008091C810882309F4F3C088608093C81001
:1038B00082E00E941A03C2FF24C09091BB10809145
:1038C000B910807D09F4FDC08091BC108111F9C050
:1038D00097FDF9C00E942D0680914D10809314062B
:1038E0000E9451068091BD1081FF05C09091BB10D0
:1038F00091609093BB10897F8093BD1084E00E94FB
:103900001A0390918410992309F44DC08FB7F8944D
:10391000109284108FBF4091C510842F90FD84E6D3
:1039200091FD865F92FD8A5093FD8F5F94FD8150DB
:10393000893C08F088EC8A3008F48AE03091C6109F
:10394000232F95FD24E696FD22E397FD29E14813F8
:1039500002C0231741F18093C5102093C610109226
:10396000C91080904D1040904E10C82D89E9B82E96
:1039700096E7E92E26E9F22EDEE737E4532EC4114E
:10398000BDC08B2D9E2DAF2DBD2F809342109093E7
:103990004310A0934410B09345100E942D068092CE
:1039A00014060E945106D0918510DD2309F453C0FE
:1039B0008FB7F894109285108FBF9091C710892F00
:1039C000D0FD84E6D1FD865FD2FD8A50D3FD8F5FA6
:1039D000D4FD8150893C08F088EC8A3008F48AE0F4
:1039E0009817A1F09091B9108093C7109111DBC086
:1039F00040915F115091601160916111709162115D
:103A000080915D110E94BC0F1092C9108091B91075
:103A1000D5FF09C0803139F49091C8109111C9C007
:103A200092E09093C8109D2F907CA9F0882311F00C
:103A3000887389F0C0915C11D7FF03C0C7FFBDC078
:103A4000CF77D6FF03C0C6FFBAC0CF7B8C2F0E94B2
:103A5000BE0BC0935C118091B9108C7F09F474CEB9
:103A6000DF91CF911F910F91FF90EF90DF90CF905A
:103A7000BF90AF909F908F907F906F905F904F908E
:103A80000C94EB1382FFFECE88608093BB10FACEBD
:103A90001092BD100E944305892B71F08091BB10DC
:103AA00086FD0AC01092BB1088E08093B9100E9476
:103AB000EB130E940F08FCCE1092BB101092B910AD
:103AC000F7CE97FF0AC01092BD100E947E0E0E9492
:103AD00051130E94780E0E94BD048091BB1085FF97
:103AE00008C08F7781608093BB1080E48093B91009
:103AF00005CF1092BB101092B91000CFCC2ED12C54
:103B0000C59DC00111248A5E994F0E94CE043B01DD
:103B1000982EA92E2B2D3E2D4F2D5D2F0E94284330
:103B20005C9C80015D9C100D11240A5E194F1816D3
:103B30009CF52B2D3E2D4F2D5D2F6B2D7E2D8F2D2A
:103B40009D2F0E946843F80163A774A785A796A7D5
:103B50005C9C80015D9C100D11240A5E194FF801D8
:103B6000C7A8D0ACE1ACF2ACA701960163A574A5DF
:103B700085A596A50E94284318162CF4F801C3A623
:103B8000D4A6E5A6F6A6CF5FC43209F4C0E0B62CF1
:103B9000E72CF92CDA2DF3CE9301492D5A2DB301E0
:103BA000892D9A2DCECF8091BD1088608093BD1055
:103BB0002BCF90FF38CF946034CFC06842CFC06421
:103BC00045CFCF92DF92EF92FF920F931F93CF9347
:103BD0000E94541B8091BB10882309F46EC00E9480
:103BE00043058C01009709F03FC0C0915D118091A1
:103BF0005C11C82BC0905F11D0906011E0906111F2
:103C0000F09062118091441181FF03C080E20E9414
:103C100002031C2F107301E0C07C8091BB1088232D
:103C200009F44BC09091BA10911147C080FF19C0A0
:103C30009091B910292F207C09F492C082FD22C0F6
:103C40001092C81040E050E0BA0180E00E94BC0F22
:103C500080E00E94BE0B8091BB108D7F84608093BA
:103C6000BB100E94541BD9CFFC01C2A1C0730E949B
:103C7000DC0BC82BF801ED5BFF4FC080D180E280E8
:103C8000F380C0CF903821F58EE594E00E94F109D1
:103C900087EC93E00E94F1090E945F0B40E050E046
:103CA000BA0180E00E94BC0F80E00E94BE0B0E941F
:103CB0000B138091BA10882341F0CF911F910F917F
:103CC000FF90EF90DF90CF9008950E94541BF1CFAA
:103CD000903449F40E94B80380FD05C08091BB1068
:103CE0008F7D8093BB108091BB1083FFBACF9091E2
:103CF0005D11992359F081FD09C08091441181FF24
:103D000022C08091BD1088608093BD1080915C11AD
:103D1000882371F08091BB1081FD0AC08C2F0E9416
:103D2000BE0B41E060E070E080E89FE30E94292143
:103D30008091BB1081FD95CF80618093BB1082E0A4
:103D40000E9424038ECFB701A601812F0E94BC0FD1
:103D500041E060E070E080E890E40E942921D6CF45
:103D60008091C8108823C9F181FF0DC080915D1139
:103D7000882351F140E050E0BA0180E00E94BC0F7E
:103D80000093C8106ECF8C7009F46BCF80915D11D9
:103D9000882399F08EE594E00E94F10980ED93E08C
:103DA0000E94F1090E945F0B8091441181FF0FC0B6
:103DB0008091BD1088608093BD108091C81083FFF2
:103DC00003C082E00E9424031092C8104ACFB701BA
:103DD000A601812F0E94BC0FF0CF8091BD1083FF00
:103DE00040CFB701A601812F0E94BC0F8091BD106A
:103DF000877F8093BD1035CF2F923F924F925F9275
:103E00006F927F928F929F92AF92BF92CF92DF92EA
:103E1000EF92FF920F931F93CF93DF93CDB7DEB74F
:103E2000EC970FB6F894DEBF0FBECDBF9091BA10DD
:103E3000911154C1382EFE0179968DE0DF011D925B
:103E40008A95E9F786E08DA3EFECF0E1FFABEEABEE
:103E50007F019E012A5D3F4F690110E000E0812C47
:103E6000912C5401832D90E099AF88AF202E802FA4
:103E70000E946705D6018D936D0188AD99AD002E26
:103E800002C0959587950A94E2F780FF31C020E043
:103E900030E040EC5FEBF701E85BFF4F6081718140
:103EA000828193810E9468432B013C01A50194010A
:103EB0000E94064187FD02C042015301B2E0B215E3
:103EC00050F420E030E0A901C501B4010E94064190
:103ED000882309F46DC020E030E040EA50E4C501D9
:103EE000B4010E94064187FF03C08AE00E941403C8
:103EF0000F5F1F4FE4E0EE0EF11C0630110509F0D4
:103F0000B5CF40904A1150904B1160904C11709079
:103F10004D1104E011E09E012E5C3F4F3BAB2AABFC
:103F20002224239468E870E1CE0101960E947C036C
:103F300080914511A82FB0E0BCAFABAFFE01319628
:103F400028E830E13DAB2CABB901AE01445D5F4FD9
:103F50001AAE90E080E075016401F7FAF094F7F88A
:103F6000F094DA011D92AD0128AD39AD082E02C0E2
:103F7000359527950A94E2F720FF36C0BAADBF5FAA
:103F8000BAAFDB011D921D921D921C9213972BADAF
:103F90003CAD082E02C0359527950A94E2F720FF24
:103FA0000EC0112371F0C082D182E282F3820DC073
:103FB000812C912C27E0A22E24E4B22E99CF11233C
:103FC00091F380829182A282B382A6E2B0E0AC0F2C
:103FD000BD1FA80FB91F2C91DA0111972C93DC019A
:103FE000A754BF4E16962C93019634966C5F7F4F64
:103FF0008630910509F0B5CFBAAD6B2F70E090E037
:1040000080E00E94B8410E940744A30192010E94EF
:104010006843698F7A8F8B8F9C8FBE01675E7F4F5D
:10402000CE0101960E94E50FE4E0E093BD100E94EE
:10403000EB130E940F08112369F10E94DA039FEB32
:10404000A92E90E1B92EAE014A5D5F4FFE01BC96EC
:1040500030E020E090E0BF01C080DA01DD90AD01EA
:10406000FC2CFD2061F07C01022E02C0F594E79447
:104070000A94E2F7E0FE03C0D094CD20C0823196CE
:10408000DB016C91D5016D935D012F5F3F4F2630B1
:10409000310509F70E94EB1380918210847309F4B3
:1040A000B2C0F0908210F4FE03C086E00E941403B8
:1040B000F5FE03C087E00E9414031111C6C00E94E0
:1040C000DA03832119F088E00E94140380918310A1
:1040D0008823E9F00E94C9130E94E11DEC960FB6F7
:1040E000F894DEBF0FBECDBFDF91CF911F910F912E
:1040F000FF90EF90DF90CF90BF90AF909F908F9008
:104100007F906F905F904F903F902F90089584E044
:104110000E941A030E94511380914E1190914F11E9
:10412000019708F07BC01225C0905011D09051111A
:10413000E0905211F0905311112309F476C020E061
:1041400030E040EA50E4C701B6010E9468434B01E9
:104150005C0140904611509047116090481170905A
:104160004911015009F0DECE20904511312C260175
:10417000370177FA709477F8709410E000E088AD1A
:1041800099AD002E02C0959587950A94E2F780FFBD
:1041900026C0EEA9FFA980809180A280B380C101D2
:1041A000002E02C0959587950A94E2F780FF48C0DB
:1041B000E85BFF4F2081318142815381C701B60105
:1041C0000E941140A50194010E9468430E9435435A
:1041D000ACA9BDA96D937D938D939C9313970F5FAD
:1041E0001F4FECA9FDA93496FDABECAB2EA93FA95E
:1041F0002C5F3F4F3FAB2EAB0630110509F0BFCF10
:104200001092BD106BCFFE01BC968191811113CF2E
:104210002AA93BA92E173F07C1F77CCFAFE9BFE022
:104220001197F1F700C000007BCF40904A115090E9
:104230004B1160904C1170904D114601570191CF78
:10424000A5019401C301B201BFCFF2FE3FCF89E0C7
:104250003BCF1F93CF93DF93142F20E030E040EA51
:1042600051E40E9468430E94EF400E948941EB01A3
:104270002097C9F08091BA10811115C011110DC09D
:104280000E94E11D2FEF80E792E021508040904096
:10429000E1F700C000002197EBCF0E94541B8091F2
:1042A000BB1081FFEFCFDF91CF911F9108950E9446
:1042B00041080E94E11D8091BA10811108C00E943E
:1042C0004305892BB1F78091B910883091F3089597
:1042D000CF93DF9321E031E0829FE001839FD00DF7
:1042E0001124DD5F40E051E0BE018AE092E10E94CE
:1042F000EB05892B79F410920A120E94572140E0B5
:1043000051E06AE072E1CE010E949B0580E0DF91FE
:10431000CF91089581E0FBCF0E9457211092CA10DF
:1043200008950F931F93CF93C82F8B010E9457219D
:1043300029E1C29FC001112448E150E0B8019E5F0D
:10434000CF911F910F910C949B051F93CF93DF93F7
:10435000182FEB0189E1189FB00111247E5F48E11D
:1043600050E0CE010E94EB05892B71F488E1FE013B
:1043700011928A95E9F7BE01812F0E94912180E078
:10438000DF91CF911F91089581E0FACFEF92FF92D4
:104390000F931F93CF93DF93CDB7DEB768970FB618
:1043A000F894DEBF0FBECDBF182F80FF0BC085E88D
:1043B000ECECF2E0AFECB0E105900D928A95E1F7FC
:1043C0000E94D60511FF10C0CE0101967C0188E144
:1043D000F70111928A95E9F700E0B701802F0E945A
:1043E00091210F5F0830C9F712FF14C060E080E030
:1043F00093E00E947B0560E081E093E00E947B05F2
:1044000060E081E094E00E947B0560E082E094E05F
:104410000E947B0513FF0AC060E08EEA93E00E94D1
:104420007B0560E08FEA93E00E947B0568960FB6FB
:10443000F894DEBF0FBECDBFDF91CF911F910F91DA
:10444000FF90EF900895CF92DF92EF92FF92CF937B
:104450009091B910923079F06A017B01C82F0E94C7
:104460005721B701A6018C2FCF91FF90EF90DF90DD
:10447000CF900C94BC0FCF91FF90EF90DF90CF9036
:104480000895882371F00E94FC1E0E94E11D809116
:10449000BA1081110BC00E94780E0E94BD040C94CA
:1044A000360484E00E94FC1E83E0EDCF0895FF9265
:1044B0000F931F93CF93DF938C01EB0180914411F5
:1044C00085FF23C0F090B91080E2F81611F1C80101
:1044D0000E942D038823C9F081E08093BC1088E0FE
:1044E000F8120CC00E9424030E94E11D8091BA10B2
:1044F00081110BC08091B9108111F6CF0E94C913B0
:1045000082E00E9414030E94E11D8091B910823064
:1045100041F10E94E11D8091BA10811122C0909159
:104520004D1080911506981303C00E944108F1CFE9
:10453000BE01C8010E94E50F811113C08091441192
:1045400081FF0FC08C8584FF0CC04C815D816E8122
:104550007F8180E1DF91CF911F910F91FF900C94AB
:104560002322DF91CF911F910F91FF9008952F92F9
:104570003F924F925F926F927F928F929F92AF92F3
:10458000BF92CF92DF92EF92FF920F931F93CF9340
:10459000DF93CDB7DEB7C756D1090FB6F894DEBFAB
:1045A0000FBECDBFE8EBF1E182E5DF011D928A95F8
:1045B000E9F78BE0E4E5F1E1A9EBB1E101900D92BF
:1045C0008A95E1F7809167118093F11180910A1229
:1045D0008432B1F01AA61BAA1FA618AA19AA1AAAF1
:1045E00023961CAE1DAE1EAE1FAE23971FAA412CF4
:1045F000512C3201312C812C912C54018394A0C177
:1046000081E08093B9111092BA1183E08AA7B1E0DA
:10461000BBABE2CF2BA4EFEB2E0EF9E1F21510F4B9
:104620000C94E0338F5F8AA7BE016A5D7F4FCE0195
:104630008A960E945502882311F40C94E333CEA08D
:10464000DFA0E8A4F9A4C701B6010E944B440E9470
:104650008941162F70E090E080E00E94BA419B01F2
:10466000AC01C701B6010E94104020E030E048ECE8
:1046700052E40E9468430E94D5430E948941CB01C5
:104680002BA5273401F12D3409F4FEC0EBA5E65427
:10469000EF3008F07EC20E2E000CFF0B8827EC5A7C
:1046A000FC4D8F4F0C94B3440525C925C9254E25D3
:1046B0005B2568257525C9257925C9258725C9253F
:1046C000A525AF25B925183209F4DCC028F5143129
:1046D00060F4113108F099C0143009F472C0B0F0E0
:1046E0001A3009F467C084E197C01C3109F462C034
:1046F00040F41631C0F725E1211B2093BB1106E0E1
:1047000088C01E3109F456C0163269F731100C9476
:10471000E633E2E03E2E27C01D3309F4AEC0D8F4E4
:10472000153309F44EC080F41B3211F01133D9F661
:1047300031100C94E633113309F098C01092BE1179
:1047400073E0372E08E04FC01C3368F61653109301
:10475000BF1109E05EC01C3510F51A3508F076C0AF
:10476000103509F0C0CF1093B91101E0163209F0ED
:1047700050C08431910551F08E31910539F0883265
:10478000910521F08233910509F0ADCF6AE070E028
:104790000E947D4466576093B91101E024C01C3526
:1047A00049F01F3508F09FCF2EE5211B2093BA1149
:1047B00005E02FC0009729F431100C94E633332420
:1047C00033941093B811212F2D7F2C3119F000E074
:1047D0001C35F9F4009719F00A9709F084CF610F9E
:1047E0006093B81100E023968CAD9DADAEADBFAD2A
:1047F0002397002E04C0B695A795979587950A94A0
:10480000D2F780FF83C085E107C011511093BD111D
:1048100002E0892B41F387E1C959DF4F0FB6F894C5
:10482000DEBF0FBECDBFDF91CF911F910F91FF90E3
:10483000EF90DF90CF90BF90AF909F908F907F9040
:104840006F905F904F903F902F900895892B29F49F
:104850001A551093BC1103E0C6CF6A30710509F0F8
:1048600042CF1A3509F43FCF04E0BDCF0A9709F0D3
:104870003ACF81E08093BE1163CF892B09F033CF0B
:104880000AE0B1CF07E0C5CF892B29F61A3078F4BA
:10489000173058F51330C0F0163008F024CF14301C
:1048A000F9F080E11530E9F41092C2111CC01E31FC
:1048B00079F008F418CF82EC810F843008F013CF20
:1048C0001093B8110FE08FCF112329F0113031F080
:1048D0001093C01103C083E08093C0110BE083CF1D
:1048E00080E28093C2110CE07ECF183041F08091BD
:1048F000C1118068193031F41092C11105C0809146
:10490000C11180648093C1110DE06DCFD501C40148
:10491000002E04C0880F991FAA1FBB1F0A94D2F74C
:1049200023962CAD3DAD4EAD5FAD2397282B392B93
:104930004A2B5B2B23962CAF3DAF4EAF5FAF239737
:104940008AA5E82FF0E0E65FFD4E30813BA73111EC
:1049500061CE411451046104710421F0311002C090
:1049600052E0352E4FA545FF0FC08091E111909187
:10497000E211A091E311B091E41181389649A84960
:10498000B10514F00C94EF338BA9882309F465C1A9
:104990009FA590FF74C18091BB118130B1F423E3D6
:1049A00033E34BEC51E46091C4117091C5118091D7
:1049B000C6119091C7110E9468436093C41170930F
:1049C000C5118093C6119093C7112FA538A949A985
:1049D0005AA930FD10C080915F1190916011A09193
:1049E0006111B09162118093ED119093EE11A0933B
:1049F000EF11B093F0118091B811843009F062C1C9
:104A00003FA536FD56C18CE107CFC092C411D092AC
:104A1000C511E092C611F092C71100E0102F8FA5CA
:104A200098A9A9A9BAA9002E04C0B695A7959795EB
:104A300087950A94D2F780FF02C00C94E93381E68F
:104A400093E0A0E0B0E0002E04C0B695A79597953E
:104A500087950A94D2F780FF0BC020E030E0A901CF
:104A6000C701B6010E94064187FF02C00C94EC33D7
:104A7000D501C40104C0880F991FAA1FBB1F1A9536
:104A8000D2F72FA538A949A95AA9282B392B4A2B87
:104A90005B2B2FA738AB49AB5AAB52CFC092C81192
:104AA000D092C911E092CA11F092CB113FA93160A6
:104AB0003FAB01E0B3CFC092CC11D092CD11E092C8
:104AC000CE11F092CF114FA942604FAB02E0A6CFBA
:104AD000C092D011D092D111E092D211F092D311A4
:104AE0005FA954605FAB03E099CF1093E01104E03D
:104AF00095CF812F90E0B0E0A0E08093E1119093FA
:104B0000E211A093E311B093E41105E087CF809107
:104B1000B8118E53843080F4612F70E090E080E013
:104B20000E94B8416093E5117093E6118093E711FC
:104B30009093E81106E072CFC092E511D092E61191
:104B4000E092E711F092E811F5CFC092E911D0920E
:104B5000EA11E092EB11F092EC1107E05FCFC09206
:104B6000ED11D092EE11E092EF11F092F01108E009
:104B700055CF20E030E04FE753E4C701B6010E9473
:104B80002843181614F40C94F8331093F11109E02B
:104B900045CF8BA58835A9F4C092F211D092F311BC
:104BA000E092F411F092F511689440F80AE08BA5B8
:104BB0008855833008F432CF22E0221508F493CDD3
:104BC0002DCF9BA5993561F4C092F611D092F711C3
:104BD000E092F811F092F911689441F80BE0E7CFF8
:104BE000ABA5AA3561F4C092FA11D092FB11E09204
:104BF000FC11F092FD11689442F80CE0D8CFBBA5EF
:104C0000B13461F4C092FE11D092FF11E092001213
:104C1000F0920112689443F80DE0C9CFEBA5E2349D
:104C200061F4C0920212D0920312E0920412F09248
:104C30000512689444F80EE0BACFFBA5F33409F0EE
:104C4000B6CFC0920612D0920712E0920812F092EC
:104C50000912689445F80FE0AACF8091BA1181300B
:104C600081F4A2E03A12B1CE8091B911803509F4F5
:104C7000ACCE882309F4A9CEBFA5B0FDA6CE86E1AF
:104C8000CBCD809155118111A0CEEFA5E0FD83CE53
:104C90008091631190916411A0916511B09166119A
:104CA0008093C4119093C511A093C611B093C711FE
:104CB0008CCE8FA598A9A9A9BAA98F7B8FA798ABED
:104CC000A9ABBAAB8091BD118823D9F0813009F42A
:104CD000F7C021E02E962FAF2E9734E02D963FAFF0
:104CE0002D9742E02C964FAF2C972F961FAE2F9703
:104CF00052E026965FAF269781E024968FAF2497E7
:104D000017C094E02E969FAF2E97A2E02D96AFAFDE
:104D10002D97B1E02C96BFAF2C97E2E02F96EFAF26
:104D20002F97F1E02696FFAF269724961FAE249783
:104D30008091BB118130B1F538EBE32E31E1F32ED8
:104D400010E000E0CC24C394D12CC601002E02C098
:104D5000880F991F0A94E2F7092E000CAA0BBB0BCF
:104D600084219521A621B721892B8A2B8B2B91F0A9
:104D700023E333E34BEC51E4D701DA966D917D9157
:104D80008D919C91DD970E946843F70162AF73AFEC
:104D900084AF95AF0F5F1F4FF4E0EF0EF11C0330AF
:104DA000110599F623E032120CC08091BE118130BA
:104DB00041F485E234E0431651046104710409F0C2
:104DC0002BCD88E1E4E8F1E1DE01119601900D922E
:104DD0008A95E1F723968CAD9DADAEADBFAD23971F
:104DE00091FD86C09091B8119BA79A3009F494C0A8
:104DF0009C3509F456C143E0341609F447C0411408
:104E000051046104710409F441C02090BC118091E7
:104E1000B4119091B511A091B611B091B7118BAFAB
:104E20009CAFADAFBEAF04E511E1B8EBCB2EB1E165
:104E3000DB2EF12CE12C81E090E00E2C02C0880FDB
:104E4000991F0A94E2F7092E000CAA0BBB0B8421D0
:104E50009521A621B721892B8A2B8B2B09F09CC188
:104E6000F801808D918DA28DB38DF60182AF93AF45
:104E7000A4AFB5AFBFEFEB1AFB0A0C5F1F4FE4E026
:104E8000CE0ED11CF6E0EF16F104A9F62BA52E31BB
:104E900009F4D5C1253309F407C268EC71E186E055
:104EA0002C3109F06AC10E94A521882399F141148F
:104EB00051046104710409F0C6C1212C312CDBC0FE
:104EC00092E02E969FAF2E97A1E02D96AFAF2D9733
:104ED000B4E02C96BFAF2C97E1E02F96EFAF2F9761
:104EE00026961FAE2697F2E02496FFAF249720CF98
:104EF0008091BF11873010F08DE18ECC90915A11C6
:104F0000891709F46FCFBE016F5F7F4F0E94A52103
:104F1000811168CF87E080CC411451046104710491
:104F200011F48AE179CC8FA598A9A9A9BAA98075AD
:104F30009927AA27BB27892B8A2B8B2B09F463CDB2
:104F40006091E5117091E6118091E7119091E8115F
:104F50000E944B440E948941673070F68091E011B5
:104F6000843131F0823009F0BECBAFA5A7FDBBCBB9
:104F700022242A94260E611102C02090BF1168ECF1
:104F800071E1822D0E94A521882321F2B091E011C8
:104F9000BBA72091B4113091B5114091B611509139
:104FA000B7112BAF3CAF4DAF5EAF98EBE92E91E15F
:104FB000F92E10E000E0CC24C394D12CC601002EC1
:104FC00002C0880F991F0A94E2F7092E000CAA0B61
:104FD000BB0B84219521A621B721892B8A2B8B2BF2
:104FE000C1F1D701DA968D909D90AD90BC90DD9780
:104FF000BBA5B43109F04DC0F801EE0FFF1FEE0F55
:10500000FF1FEC5AFE4EDF01A85BBF4F2D913D9173
:105010004D915C91608D718D828D938D0E941040B9
:10502000A50194010E941040F701608B718B828B67
:10503000938B023071F42BAD3CAD4DAD5EAD0E9453
:1050400010406093D0117093D1118093D21190933E
:10505000D3110F5F1F4FB4E0EB0EF11C06301105AA
:1050600009F0ACCF2FA538A949A95AA92F7A2FA7A3
:1050700038AB49AB5AABB091B911BBA7B03509F009
:105080001AC1411451046104710409F43FC18FE154
:10509000C3CBD70150968D929D92AD92BC925397FF
:1050A000D8CF411451046104710409F43ACF8090BF
:1050B000B4119090B511A090B611B090B71114E54D
:1050C000C12E11E1D12EAE014F5F5F4F5CA74BA700
:1050D00008EBE02E01E1F02E10E000E081E090E02E
:1050E000002E02C0880F991F0A94E2F7092E000CC7
:1050F000AA0BBB0B84219521A621B721892B8A2BD2
:105100008B2BE9F1ABA5BCA52D913D914D915C9107
:10511000F601608D718D828D938D0E941040D701B4
:10512000DA962D913D914D915C91DD970E94104052
:10513000F70162AF73AF84AF95AF023061F4A501A0
:1051400094010E9410406093FA117093FB118093B8
:10515000FC119093FD110F5F1F4FF4E0CF0ED11C97
:105160002BA53CA52C5F3F4F3CA72BA734E0E30EBB
:10517000F11C0630110509F0B1CF212C7CCFF601CE
:10518000E85BFF4F80819181A281B381F70182AFFB
:1051900093AFA4AFB5AFDFCFFBA5F53309F46ACE6B
:1051A000D601DA968D909D90AD90BC90DD97211040
:1051B00035C0F701EE0FFF1FEE0FFF1F21E030E0BB
:1051C0002C0F3D1FE20FF31FD801A85BBF4F2D919D
:1051D0003D914D915C9160817181828193810E94AA
:1051E0001140A50194010E941140D601DA966D93F9
:1051F0007D938D939C93DD97B2E0EB123BCE2BAD6C
:105200003CAD4DAD5EAD0E9411406093FA117093BC
:10521000FB118093FC119093FD112CCEA5019401FC
:10522000F801608D718D828D938D0E941140D601A1
:10523000DA966D937D938D939C93DD971BCE68ECEE
:1052400071E187E030CE64E571E1E8EBF1E130E057
:1052500020E041E050E0CA01022E02C0880F991FF1
:105260000A94E2F7092E000CAA0BBB0B6C017D011E
:10527000C420D520E620F720CD28CE28CF2859F409
:10528000DB015896CD90DD90ED90FC905B97C08A45
:10529000D18AE28AF38A2F5F3F4F6C5F7F4F34964B
:1052A00026303105C1F669CF8091B911823008F4FA
:1052B00064CF8EE1B1CAE2E03E1228C0FBA5F11135
:1052C00007C0411451046104710401F5312C1EC062
:1052D00020E030E0A9016091C4117091C511809166
:1052E000C6119091C7110E940641882309F4C7CCCA
:1052F0002BA52C3809F4BFC008F0B3C0223009F444
:10530000D3C0233009F4D3C02130D9F2F090B811C2
:1053100082EC8F0D8430F0F45FA556FF74CB20E053
:1053200030E040E450E46091E5117091E611809125
:10533000E7119091E8110E942843181614F40C9478
:10534000F8338FA598A9A9A9BAA98F7B8FA798AB85
:10535000A9ABBAAB2BA921709BA990FF18C38FA54D
:1053600098A9A9A9BAA98E7D332011F09370A87FBE
:10537000892B8A2B8B2B11F00C94FB338E01075E4B
:105380001F4F8DE0D8011D928A95E9F7222309F479
:1053900005C323968CAD9DADAEADBFAD2397867B87
:1053A000892B8A2B8B2B11F00C94FE33B5E3FB1663
:1053B00019F0F1100C94FE3380915F1190916011FF
:1053C000A0916111B09162118D8F9E8FAF8FB8A3A4
:1053D00080915D1190915C11892B4091C411509185
:1053E000C5116091C6117091C711498F5A8F6B8F8B
:1053F0007C8F84608DA38091E1119091E211A09146
:10540000E311B091E41189A39AA3ABA3BCA380914B
:10541000441185FF07C082EF91E10E942D038111A5
:105420000C940134B80182EF91E10E9457228091DF
:10543000B91081110BC00E944305892B39F080E21D
:105440008093B9100E94EB130E940F0888E1E2EFED
:10545000F1E1ACE6B1E101900D928A95E1F780E0CF
:10546000DBC93BA53E3839F018F03F3809F04ECF84
:105470003BA930613BAB8BA58E58823018F44BA909
:1054800048604BAB411451046104710409F449CDE7
:1054900048E150E062EF71E18CE691E10E94D54471
:1054A000892B09F033CF84C04BA944604BAB411426
:1054B00051046104710409F434CD24965FAD24973E
:1054C000A52EB12C26968FAD2697882E912C01E023
:1054D00010E0C80102C0880F991F5A95E2F726967E
:1054E0000FAC269702C0000F111F0A94E2F7082B99
:1054F000192BC801012E000CAA0BBB0B842195218E
:10550000A621B721892B8A2B8B2B11F40C94F23313
:10551000F501EE0FFF1FEE0FFF1FE854FE4ED50101
:10552000AA0FBB1FAA0FBB1FA459BE4E2D913D91C0
:105530004D915C9162AD73AD84AD95AD0E9410400C
:105540006BAF7CAF8DAF9EAFF401EE0FFF1FEE0F80
:10555000FF1FE854FE4ED401AA0FBB1FAA0FBB1FAA
:10556000A459BE4E2D913D914D915C9162AD73ADAC
:1055700084AD95AD0E9410402B966CAF7DAF8EAF81
:105580009FAF2B979FA597FF1DC12FA538A949A9AC
:105590005AA92F772FA738AB49AB5AAB48E150E057
:1055A00062EF71E18CE691E10E94D544892B11F400
:1055B00081E232C96091E9117091EA118091EB1199
:1055C0009091EC112091BB11213071F423E333E36E
:1055D0004BEC51E40E9468436093E9117093EA1127
:1055E0008093EB119093EC118090E9119090EA1167
:1055F000A090EB11B090EC112BAD3CAD4DAD5EAD7C
:10560000CA01B9010E9468436FAB78AF89AF9AAF06
:105610002B962CAD3DAD4EAD5FAD2B97CA01B901B8
:105620000E94684366966CAF7DAF8EAF9FAF669762
:1056300020E030E040E850E4C501B4010E94684336
:10564000A50194010E9468432FA938AD49AD5AAD18
:105650000E94104066962CAD3DAD4EAD5FAD669795
:105660000E9410406B017C0120E030E0A9010E9403
:10567000064187FF02C00C94F533C701B6010E94B2
:1056800007446B017C0166962CAD3DAD4EAD5FAD20
:1056900066976FA978AD89AD9AAD0E9411400E94BE
:1056A00007449B01AC01C701B60190580E9410410C
:1056B0006B017C013BA5333021F4F7FAF094F7F845
:1056C000F09420E030E0A901C501B4010E94064138
:1056D00087FF0FC0F7FAF094F7F8F094D501C401F2
:1056E000B0588093E9119093EA11A093EB11B09315
:1056F000EC11A70196012B966CAD7DAD8EAD9FADE3
:105700002B970E9468439B01AC016BAD7CAD8DADC6
:105710009EAD0E94104020E030E040E05FE30E9438
:1057200068434B015C01A70196016BAD7CAD8DAD6B
:105730009EAD0E9468432B962CAD3DAD4EAD5FAD46
:105740002B970E94114020E030E040E05FE30E9490
:1057500068432091BD11222399F0213011F18092EC
:10576000CC119092CD11A092CE11B092CF11609336
:10577000D0117093D1118093D2119093D311C6CDD3
:105780008092C8119092C911A092CA11B092CB1107
:105790006093CC117093CD118093CE119093CF1163
:1057A000B5CD8092D0119092D111A092D211B09229
:1057B000D3116093C8117093C9118093CA1190934B
:1057C000CB11A4CD4FA9C42ED12C04231D2183E2DB
:1057D000012B09F421C88FA598A9A9A9BAA9817F8D
:1057E0008FA798ABA9ABBAAB8091BB11813049F5BB
:1057F00038EBE32E31E1F32E10E000E0C601002E7D
:1058000002C0959587950A94E2F780FF12C023E3C2
:1058100033E34BEC51E4D70150966D917D918D911E
:105820009C9153970E946843F701608B718B828B28
:10583000938B0F5F1F4FF4E0EF0EF11C0330110547
:10584000E9F6F501EE0FFF1FEE0FFF1FE853FE4EC6
:1058500020813181428153812FAB38AF49AF5AAF9C
:105860006BAD7CAD8DAD9EAD0E9410406BAF7CAF3B
:105870008DAF9EAFF401EE0FFF1FEE0FFF1FE85339
:10588000FE4EC080D180E280F380A70196012B9666
:105890006CAD7DAD8EAD9FAD2B970E9410404B013E
:1058A0005C012BAD3CAD4DAD5EADCA01B9010E94AE
:1058B00068436BAF7CAF8DAF9EAFA5019401C5016E
:1058C000B4010E9468439B01AC016BAD7CAD8DAD12
:1058D0009EAD0E9411400E9407444B015C012FA91C
:1058E00038AD49AD5AADCA01B9010E9468436FABEA
:1058F00078AF89AF9AAFA7019601C701B6010E94A0
:1059000068439B01AC016FA978AD89AD9AAD0E9447
:1059100011400E9407446B017C01C092E911D092B2
:10592000EA11E092EB11F092EC11AC019B01C50180
:10593000B4010E9410404B015C01E894B7F82AE0E2
:1059400037ED43EA5BE3C501B4010E942843181612
:105950000CF0DCCC20E030E040E05FE3C501B401B6
:105960000E94284318160CF423CE2FE632E143E8B8
:105970005AE3C701B6010E9468439B01AC01C5010F
:10598000B4010E94284318160CF0C0CC11CE8FA58C
:1059900098A9A9A9BAA98E7D9C7FE6CC80914411D3
:1059A000F0905D1181FF12C08BA58150833018F0FB
:1059B000EBA9E064EBAB45284628472809F445C12C
:1059C000F2E03F1242C12BA920682BAB8091E1117C
:1059D0009091E211A091E311B091E41180936811CC
:1059E00090936911A0936A11B0936B1189A39AA344
:1059F000ABA3BCA38091BA1180935511882311F0F9
:105A000088E08DA38091C4119091C511A091C61119
:105A1000B091C7118093631190936411A0936511A5
:105A2000B0936611898F9A8FAB8FBC8F8090ED11E8
:105A30009090EE11A090EF11B090F011A50194019B
:105A400060915F117091601180916111909162116C
:105A50000E9406419BA99074E92E811103C0ABA955
:105A6000A5FF1FC0FF2069F0BBA9B7FD0AC040E039
:105A700050E0BA01E11002C0B501A4018F2D0E94CF
:105A800023228091ED119091EE11A091EF11B09130
:105A9000F01180935F1190936011A0936111B09306
:105AA0006211E1100CC080915F1190916011A09182
:105AB0006111B09162118D8F9E8FAF8FB8A38091CD
:105AC000F111809367118091C21190915D11981727
:105AD00051F04D8D5E8D6F8D78A10E9423228091B3
